:020000020000FC
:100000000DC0000035C0000000000000000000002E
:10001000000000000000000000002EC032E03EBFE3
:100020003FE53DBF3FEF37BB332731BB332736B901
:1000300031E030EA3BBF332735BF36BF3FEF30BB3F
:1000400035B9789443E060E0552750FFFECF4095E6
:1000500048BB409515D0662309F005C0440F403CCD
:10006000A1F761E0F2CF4695433079F76627EDCFEF
:1000700051E0839BFECF18955527289BFECF1895FE
:1000800009E01AEC2DED2A95F1F71A95D9F70A95A2
:04009000C1F7089517
:00000001FF
