:1000000010C02AC029C028C027C026C025C024C0CF
:1000100023C022C022C020C01FC01EC01DC01CC0E3
:100020001BC011241FBECFE5D2E0DEBFCDBF10E064
:10003000A0E6B0E0E0EDF0E002C005900D92A6363B
:10004000B107D9F710E0A6E6B0E001C01D92A836CE
:10005000B107E1F723D03AC0D3CF1F920F920FB66A
:100060000F9211248F939F93EF93FF9380916700DA
:10007000882359F080916600E82FF0E0EE59FF4F99
:1000800090819CB98F5F80936600FF91EF919F9163
:100090008F910F900FBE0F901F90189510BC87E1A5
:1000A00089B988E28AB986E880BD81E088BB789406
:1000B000B09908C0B09BFECF80916600833028F0D5
:1000C0001092660010926700F3CFFFCFF894FFCF35
:0600D0001700415652002A
:00000001FF
